:100000000C94CD040C94EA040C94EA040C9405328C
:100010000C94EA040C94EA040C94EA040C94EA04A8
:100020000C94EA040C94EA040C946E2E0C94462F63
:100030000C9480190C94EA040C94EA040C94EA04DD
:100040000C94EA040C94EA040C94EA040C94EA0478
:100050000C94EA040C944A2E0C94EA040C94EA04DE
:100060000C94EA040C94EA040C94EA040C94EA0458
:100070000C94EA040C94EA040C94EA040C94EA0448
:100080000C94EA040C94EA040C94EA040C94EA0438
:100090000C94EA040C94EA040C94EA040C94EA0428
:1000A0000C94EA040C94EA040C94EA040501090295
:1000B000A10185020901A1000509190129081500FE
:1000C0002501950875018102050109300931158165
:1000D000257F95027508810609381581257F9501D0
:1000E00075088106050C0A38021581257F95017572
:1000F000088106C0C00660FF0961A1010962150000
:1001000026FF009520750881020963150026FF006F
:10011000952075089102C005010906A1010507197E
:10012000E029E71500250195087501810295017503
:100130000881010507190029FF150026FF00950613
:100140007508810005081901290515002501950587
:1001500075019102950175039101C000AF00AE00D9
:10016000000000000000002F000000000700070052
:1001700000123F123F1200242A7F2A120036091E65
:10018000241B001826291228000000070000000088
:100190001E214000000040211E000014083E0814EB
:1001A0000008083E08080000003070000008080839
:1001B00008080000003030000020100C0201001E72
:1001C0002925231E0000223F200000223129292654
:1001D00000122125251A001814123F10001725259A
:1001E0002518001E25252518000131090503001AD0
:1001F0002525251A00062929291E00000033330071
:100200000000003373000008141422220014141498
:100210001414002222141408000201290502003ED1
:1002200059555D3E003816111638003F2525251A10
:10023000001E21212112003F2121211E003F2525E2
:100240002521003F09090901001E2121291A003F2B
:100250000404043F0000213F210000102020201F43
:10026000003F040C1221003F20202020003F020408
:10027000023F003F020C103F001E2121211E003FC3
:1002800009090906001E2129112E003F0909192616
:100290000012252529120001013F0101001F202025
:1002A000201F000718201807000F300C300F002106
:1002B000120C1221000304380403003129252321E4
:1002C00000007F4141000001020C1020000041416C
:1002D0007F00000402010204004040404040000052
:1002E0000103040000102A2A2A3C003F2422221C79
:1002F000001C22222224001C2222243F001C2A2A25
:100300002A0C0000043E0505000C5252543E003FEA
:10031000080404380000003D0000002040403D007B
:10032000003F080814220000013F2000003E023C6C
:10033000023C003E0402023C001C2222221C007EE1
:100340001422221C001C2222147E003E04020204FD
:1003500000242A2A2A120000021F2200001E202048
:10036000103E000618201806000E300C300E002239
:1003700014081422000E5050483E0022322A262231
:100380000008087741410000007F000000414177EC
:10039000080800180408100C00000000000000000D
:1003A0000000000000000000000000C0F0F88C8693
:1003B000C6E7FFFFFFFFFFFFFEFCFCF8E080000048
:1003C00000F0F0F00000C0E0F070700000000000ED
:1003D000000000000000000000000000000000001D
:1003E00000F8F8F800000000000000000000000025
:1003F00000000000000000F8F8F80000F8F8F8002D
:100400000000000080E07078686C64C7C7C7C7C789
:10041000C7E73F1F0F3FFFFFFFFFFFFF3F0F00003A
:1004200000FFFFFF1E3FFFF3E1800000F8FCFE36F7
:1004300036363EBCB8000E3EFEF080F0FE3E0E00AA
:1004400000FFFFFF060606FEFEFC7000E6F6F6362D
:1004500036FEFEFC000000FFFFFF0000FFFFFF0074
:100460000000003C7F6360E0C0C0C0C0C0C0C0C02E
:10047000FFFFC06030180F030303010000000000FD
:10048000000303030000000303030300010303034D
:100490000303030301007070393F1F0701000000D0
:1004A000000103030303030303010000010303032B
:1004B0000303030100000003030300000303030020
:1004C00010101000000000550000003E635D5D63E9
:1004D0007F417B77413E00001C22221C003E0A0027
:1004E0003E0A00322A3C0026281E001C2A2C00004E
:1004F000003F09360000001E212100000000003FDF
:100500000837001E2121001E2121003F090600217D
:100510003F2100222519001E2121003F0936003FFE
:10052000211E00213F21000F300F003E093E003FF9
:10053000063F003F20200009025B00030100A0FAF3
:100540000904000001030101000921110100012239
:1005500044000705810308000109040100020300AB
:100560000000092111010001222200070582032059
:100570000001070503032000010904020001030034
:100580000000092111010001224900070584032010
:10059000000112010002000000085759000200018A
:1005A0000102000114034B00650079006200610044
:1005B0006C006C00330039000000100359006F001C
:1005C00077006B00650065007300000004030904F8
:1005D00014001A000800150017000000040016009F
:1005E000070009000A0000001D001B00060019009A
:1005F00005000000E000E300E20091222C4190435E
:10060000130012000C0018001C0000002D000F0049
:100610000E000D000B0000003800370036001000FF
:1006200011000000E500E700E600912228422A00C0
:100630003A003B003C003D00300000003E001E023E
:1006400023028902250200002E022F0224021F022B
:100650003002000087002E0020020100010001008E
:1006600043004200410040003F0000003300D20040
:100670004B00D100870200004400D3004E0021024D
:100680002F0000004500E700E60001000052025282
:100690002B002400250026002D000000340221003C
:1006A000220023003302000038001E001F0020003B
:1006B0002D0200002900270037004C0028002A00E6
:1006C0002A000100D3000100320000003400D200F3
:1006D0005200D1002602000001004F0051005000DE
:1006E00032020000010001000100010001000100D0
:1006F00020780A7E0B7E0C7E010000002178237892
:1007000025782778087E00002278247826782878B3
:10071000097E0000007C007E010001000100010054
:100720000F7E0D7E0E7E0100010000000100010021
:100730000100010001000000017E047E027E037EB4
:10074000057E0000007C007E010001000100010028
:10075000202000202000BABB004B657920B100208A
:10076000C0C100BEBF00484F0056540030302000CA
:1007700020202020B1BCBD0042616C6CB100B4B53A
:1007800000B2B300C2C3004CB6B772B100FFAA7F7B
:1007900055400001010101010101010102020202B3
:1007A000020202020203030303030303030404041B
:1007B00004040404050505050506060606060707E4
:1007C00007070708080808090909090A0A0A0B0B9C
:1007D0000B0C0C0C0D0D0D0E0E0E0F0F0F1010113B
:1007E00011111212131314141515161617171818C1
:1007F00019191A1A1B1B1C1D1D1E1E1F2020212229
:1008000022232424252626272829292A2B2C2D2D6E
:100810002E2F30313232333435363738393A3B3C8B
:100820003D3E3F404142434445464748494A4C4D7E
:100830004E4F50515354555658595A5B5D5E5F6147
:100840006264656668696B6C6D6F707273757778DA
:100850007A7B7D7E8082838587888A8C8E8F919338
:100860009596989A9C9EA0A2A3A5A7A9ABADAFB15F
:10087000B3B5B7BABCBEC0C2C4C6C9CBCDCFD1D444
:10088000D6D8DBDDDFE2E4E7E9EBEEF0F3F5F8FAEA
:10089000FDFF00DA0281FFD9F1DB20A4A62EAF0014
:1008A000A0C0D30000A1C8D30000AED580A81F40CF
:1008B0008D14200000000000000000000000000077
:1008C0000000000000000000000000000000000028
:1008D00000000000000000007E0F00D4FFFFFFC7F3
:1008E0000000007800000000000000002A2B280013
:1008F00000000000000000000000000000000029CF
:10090000000000002C1E3420212224342627252E0E
:10091000362D3738271E1F20212223242526333346
:10092000362E37381F0405060708090A0B0C0D0E72
:100930000F101112131415161718191A1B1C1D2F3E
:100940003130232D350405060708090A0B0C0D0E5E
:100950000F101112131415161718191A1B1C1D2F1E
:100960003130354C6162636465666768696A6B6CD7
:100970006D6E6F707172737475767778797A3132C3
:100980003334353637383930524542545F2D3D5B6C
:100990005D5C233B27602C2E2F0011241FBECFEF60
:1009A000DAE0DEBFCDBF11E0A0E0B1E0EEE2F9E6B3
:1009B00002C005900D92A03EB107D9F725E0A0EE48
:1009C000B1E001C01D92AC3FB207E1F70E94502890
:1009D0000C9453340C940000AC019B01860F971FBC
:1009E0002095309557FD07C02823392337FF09C0CC
:1009F0008FEF9FE70895282B392B37FD02C080E049
:100A000090E8089520E287FF02C081952DE23AE048
:100A1000632F0E947733905D9093F70581110CC08E
:100A20002093F60520E2822F20E28093F5052093A3
:100A3000F40584EF95E00895632F0E947733905D6D
:100A40009093F605882379F3805DEFCF8F708A301D
:100A500010F4805D0895895A08950F931F93CF93E2
:100A6000DF93EC01FB0180919401811101C084E0CE
:100A70008150990B01E010E002C0000F111F8A9510
:100A8000E2F788819981B8010E9485339B0199839F
:100A900088838A819B81B8010E9485339B838A83E6
:100AA00061388FEF7807F4F060387105ECF46583F6
:100AB00021388FEF3807D4F020383105CCF4822F5D
:100AC00081958483442319F0619565832483809103
:100AD0009501882379F0813079F0DF91CF911F91D2
:100AE0000F91089561E8E3CF6FE7E1CF21E8E7CF09
:100AF0002FE7E5CF1582F1CF1482EFCFCF93DF93AD
:100B0000E2E8F1E083819481A581B681E9018883DF
:100B10009983AA83BB831482138216821582DF9184
:100B2000CF910895982F82958F70882311F0982F78
:100B300084E0292F26952695222311F08E5F922F8F
:100B4000969591118F5F08958093A8050895292F98
:100B5000983098F5863088F590E036E0239F800D38
:100B6000911D1124282F277041E001C0440F2A95C0
:100B7000EAF723E0969587952A95E1F7FC01EE0FB9
:100B8000FF1FE80FF91FED57FA4F20E030E070E04B
:100B90005191DF011197CB01022E02C096958795E6
:100BA0000A94E2F7817081958527842385278C93A9
:100BB0002F5F3F4F2330310559F70895292F983083
:100BC00078F5863068F590E036E0239F800D911D22
:100BD0001124682F677023E0969587952A95E1F791
:100BE000FC01EE0FFF1FE80FF91FED57FA4F40E031
:100BF00050E080E0219130E0062E02C03695279526
:100C00000A94E2F721703327042E01C0220F0A94C0
:100C1000EAF7822B4F5F5F4F4330510559F7089534
:100C200080E008958091AF059091AE05981301C0C2
:100C300008958F5F8770FACF982F90958091EF0578
:100C400089238093EF050895811522E59207A0F589
:100C5000811530E5930708F0AEC0883E910538F065
:100C6000811540E49407E8F09F70906A0895803EF3
:100C7000910508F5853A910550F484309105D8F432
:100C800021E0019709F020E0822F90E008959C0177
:100C90002D5C31092331310508F468C080E090E013
:100CA0000AC0811560E2960708F09FC09C013A9542
:100CB00021153F4198F70895803822E59207C0F545
:100CC000803632E5930708F05AC0803442E5940735
:100CD000B0F0282F26952695277060E2269F900178
:100CE0001124837041E050E0BA0102C0660F771F03
:100CF0008A95E2F7CB01822B932B9C680895803272
:100D000072E59707A8F5282F2695269540E2249F9F
:100D100090011124837041E050E0BA0102C0660FD7
:100D2000771F8A95E2F7CB01822B932B9D6808955C
:100D3000803C72E5970760F4282F2F71803A924526
:100D4000A0F5822F90E0982F8827846F906A0895ED
:100D50009C01205C32452032310508F09FCF982F4E
:100D6000882788279F71806F906A089590650895FD
:100D70008F7190E0982F8827816F906A0895282FAF
:100D800026952695277040E2249F900111248370B8
:100D900041E050E0BA0102C0660F771F8A95E2F782
:100DA000CB01822B932B9A680895822F90E0982F85
:100DB0008827906208959C0195E0369527959A952D
:100DC000E1F72F7030E0322F2227482F4F7150E08B
:100DD0008071882329F084E0440F551F8A95E1F73C
:100DE000242B352BC901906908959F71E2CF80E0D3
:100DF0000895F894E82FE295EF70F0E041A18F702C
:100E000021E030E0B90102C0660F771F8A95E2F752
:100E1000CB01962F9095942391A392A1892B82A325
:100E200078940895E8E1F5E0878980934601808D04
:100E300080935901089580917F01811114C08091A0
:100E40008101811110C08091800181110CC09091AD
:100E5000AA0596959695969581E020917701921333
:100E600080E08170089581E0FCCFE6E7F1E08285C3
:100E700091E08927828710861782089590918101D9
:100E8000882341F09F5F9093810110927E01109220
:100E90007D0108959150F7CFA0E0B0E0E2E5F7E0E2
:100EA0000C943C33E901E42FF0E0EE56F84F611169
:100EB0000BC0E4919E2F8E2F8983E8839A83CDB750
:100EC000DEB7EAE00C945833282F30E0062F10E00C
:100ED000F491EF2F86E0829F6001839FD00C112454
:100EE000EE24EA94F12CC601B7010E942033220FB0
:100EF000331F45E5469FC001479F900D1124281BD5
:100F0000390B822F880F280FC701801B910BF89F88
:100F1000A001F99F500D1124952F209F5001219F72
:100F2000B00C1124AB2CBB24D701AA19BB095D015D
:100F3000FA9DD001FB9DB00D11248B2F5701A21AF1
:100F4000B1089501209F5001219FB00C309FB00C3B
:100F50001124AB2CBB24EA18FB08FE9D9001FF9DD9
:100F6000300D112463307105C9F01CEFC11613E078
:100F7000D10650F46130710509F49ECF62307105DD
:100F800089F08E2FE32F98CF6430710571F06630B1
:100F90007105B9F3E52F9B2F8F2F8ECFEB2F852F68
:100FA0009F2F8ACF852F932F87CF832FE52FF8CFC1
:100FB00080919E05823060F48170826080939E05EE
:100FC0008091A105873918F086E98093A1050895DD
:100FD0008831B0F381708661F1CFFA01882311F076
:100FE00009950895FB01FCCFFC01680F791F8FEF75
:100FF00091E3E617F70709F408952191822728E085
:1010000030E087FF08C0880F89272150310921155A
:101010003105B9F7EECF880FF8CF63E070E08EE2CC
:1010200095E00E94F40790912D05891318C0E09176
:101030002E05EC30A4F488E0E802F0011124EA5E09
:10104000FE4F0680F781E02D309749F021E535E02D
:101050004091300561E375E080912F050995089571
:10106000A4E0B0E0E6E3F8E00C9444338FB7F894E2
:1010700020911405309115054091160550911705E2
:1010800029833A834B835C838FBF69817A818B810B
:101090009C812496E2E00C946033CF93C82F80911A
:1010A0008F018C1751F00E9430086093900170936B
:1010B00091018093920190939301C0938F01CF91FE
:1010C0000895CF93C82F0E949205982F81E0933006
:1010D00009F080E00E944D08C093A905CF910895C2
:1010E00021E030E001C0220F8A95EAF78091A9053E
:1010F000822B0E946108089521E030E0A90102C01E
:10110000440F551F8A95E2F7CA0180959091A90571
:1011100089230E94610808959091AA0580958923EA
:101120008093AA05282F277021110DC0891759F027
:101130009091AC0592FF07C08695869586950E9492
:101140007C081092AA0508959091A90521E030E04D
:10115000F90101C0EE0F8A95EAF7D90102C0AA0F82
:10116000BB1F6A95E2F7EA2B01C0220F4A95EAF706
:10117000892F8E23E81305C0892F822B0E946108D6
:1011800008952095822F8923F9CF87E797E79093D9
:1011900001088093000888E19AE00FB6F894A895BA
:1011A000809360000FBE90936000FFCF80910E028D
:1011B00008950895FC019B0180910402909105021D
:1011C0008617970740F0672B29F48091E8008E7707
:1011D0008093E800C90140E0009741F4411106C046
:1011E0008091E80082FF2FC080E008952091710572
:1011F0002223A9F12530A9F12091E80023FD2DC07B
:101200002091E80022FDECCF2091E80020FFE4CF00
:101210003091F3002091F200009719F02830310549
:1012200058F041E02830310509F040E02091E80015
:101230002E772093E800D0CF41914093F1000197A1
:101240002F5F3F4FE9CF80917105882341F08530B2
:1012500041F08091E80083FFC3CF81E0089582E0F0
:10126000089583E008958091FE0187FF13C0809167
:10127000E80082FF06C08091E8008B778093E80049
:1012800004C0809171058111F2CF0895809171059C
:101290008823D9F38091E80080FFF8CF8091E8009F
:1012A0008E77ECCF2091E4003091E50095E6A9011E
:1012B0008091EC008170882331F08091E80080FFFC
:1012C00006C080E008952091E80022FD1BC08091B7
:1012D0007105882391F0853091F08091EB0085FDB8
:1012E00010C02091E4003091E5004217530701F34C
:1012F00091509111DCCF84E0089582E0089583E05D
:10130000089581E00895E8EDF0E080818E7F80838C
:101310001092E2001092DA001092E100A0EEB0E02C
:101320008C9181608C9380818F77808319BCA7ED2D
:10133000B0E08C918E7F8C9380818F7E8083109221
:10134000FD010895982FE42FE2709093E90089132E
:1013500008C0762F242F50E0E11111C091E0980FC2
:10136000F4CF7091EC002091ED005091F00021FD40
:1013700006C09F5F973049F78093E9000895309148
:10138000EB003E7F3093EB003091ED003D7F3093DA
:10139000ED003091EB0031603093EB007093EC0086
:1013A0002093ED005093F0002091EE0027FDE1CF57
:1013B0000895A0E0B0E0EFEDF9E00C943E33C8ED05
:1013C000D0E088818F7E8883E7EDF0E080818160C6
:1013D000808384E082BF81E08093FD0188818E7FDD
:1013E000888302EE10E0F80110821092DA0081EE9C
:1013F000C82ED12CF601108288818F77888388814E
:101400008068888388818F7D888319BC10927105DC
:101410001092FC011092E0041092FB0190EEE92E74
:10142000F12CF70180818B7F8083888181608883A4
:1014300042E060E080E00E94A209F60180818E7F98
:101440008083F801808181608083808188608083CF
:10145000F70180818E7F8083888180618883CDB70A
:10146000DEB7E8E00C945A33E091AF059091AE05F9
:1014700027E0E91302C080E00895AE2FB0E02E9F70
:10148000F0011124E055FA4F3181361306C0308146
:10149000381303C03581341304C0FD013196E77061
:1014A000E8CF81E0089525982D9A869A8E9885E058
:1014B0008A95F1F7000083B186988E9A90EA9A9502
:1014C000F1F785FB882780F991E089270895CF936C
:1014D000DF9380918201D6E1811101C0D8E1809132
:1014E0008301C0E0882331F080918401C6E181113D
:1014F00001C0C8E10E94530A9D2F9C0F8111C0E0DA
:10150000C0930801D093090110920A0190930B0136
:1015100090930C01DF91CF91089580918201F901A0
:1015200080830E94670A089580917205811116C018
:1015300088EC90E02091E30027FD17C0EFE3FCE981
:101540003197F1F700C000000197009799F782E00A
:10155000809372050E9483091092710581E0909139
:101560007205913031F080E0089581E0809372053A
:10157000F5CF0895A4E0B0E0E0ECFAE00C94443339
:101580000E94940A882371F00E94300869837A834C
:101590008B839C8369817A818B819C812496E2E094
:1015A0000C9460330E94300869837A838B839C8318
:1015B0008091730590917405A0917505B0917605A1
:1015C00029813A814B815C81280F391F4A1F5B1F9B
:1015D00029833A834B835C83DDCF0E94940A88235E
:1015E00059F0E0917905F0917A05309729F0019052
:1015F000F081E02D0995089580E00895409109015A
:1016000080919E0580FF24C02091080130E0C9012F
:10161000880F991F820F931F8F5C9D4F539A6BB158
:10162000677F7BB17860EFB7F89450E09A01220FA2
:10163000331F240F351F280F391F28173907E9F4E6
:10164000EFBF8FE594E00197F1F700C00000089527
:1016500080910A0190910B01282F30E0F901EE0FE3
:10166000FF1FE20FF31FEF5CFD4F891768F6118231
:10167000108212828F5F3396F8CFDC014D91CD013D
:1016800058E07BB9000000C047FF6BB9440F000071
:1016900000C000C000C06BB900C05A9591F7CDCF13
:1016A000EEE9F5E080818E7F8083EBE9F5E08281D1
:1016B000816082830E94FE0A08950F931F93CF9347
:1016C000DF93EB018A0190917105943079F5809355
:1016D000E9008FEF9091E80095FD07C095ED9A9590
:1016E000F1F7000081508111F5CF8091E80085FF6E
:1016F0001DC00E945209811114C08091E80085FD2F
:1017000006C08091E8008E778093E800F2CF888150
:101710008093F100015011090115110511F0219676
:10172000ECCF8091E8008E778093E800DF91CF9135
:101730001F910F910895CF93DF93D82FC92F48E0C1
:1017400050E0682F792F81E00E945D0B88E0ED2F3B
:10175000FC2FA6E0B2E001900D928A95E1F7DF91AF
:10176000CF910895BC0146E050E084E00E945D0BFB
:101770000895A0E0B0E0EFEBFBE00C943C33F82ED2
:10178000E92EB62EA72E8A018091FE04CC24C394A4
:10179000D12C8A3018F48AE0C82ED12CC1E0D0E0D8
:1017A0006B2D7A2D8F2D9E2DF8010995811116C074
:1017B0002196CC16DD0694F0CC9FC001CD9F900DF4
:1017C000900D112420E030E045E34A95F1F7000048
:1017D0002F5F3F4F28173907B9F7E2CFCDB7DEB7F4
:1017E000EAE00C9458339091AC0592FB222720F943
:1017F000281779F080FB92F99093AC056091AB05C6
:101800007091AC0584E090E00E943D3482E00E943B
:101810008C08089585E290E00E94FB33843289F4BD
:1018200086E290E00E94FB33803159F487E290E039
:101830000E94FB3391E0863109F090E0892F81709E
:10184000089580E0FCCFA4E0B0E0E9E2FCE00C9475
:10185000443388E290E00E94FB33282F30E040E0E0
:1018600050E0CA01B9012496E2E00C9460330F9372
:101870001F93CF93DF93873030F5683020F54630E3
:1018800010F5C42FD0E0CC0FDD1F2CE0629FC00DFF
:10189000D11D112430E6839FC00DD11D1124CE012E
:1018A00089960E94FB33082F10E0102F0027CE01ED
:1018B0008A960E94FB339801282BC901DF91CF91B2
:1018C0001F910F91089580E090E0F8CF462F672F89
:1018D000783038F4463028F4873018F40E94370CFA
:1018E000089580E090E00895A0E0B0E0EAE7FCE031
:1018F0000C943F337C010091A9058091A805082B29
:10190000C6E0D0E010E0C8010C2E02C09595879586
:101910000A94E2F780FD09C02197A8F7D12C8D2DFC
:10192000CDB7DEB7E7E00C945B33DC2EB7018C2F2C
:101930000E94660C0E942406019771F3F0CF0F936A
:101940001F93CF93FC01858100811181882391F041
:10195000662381F0C8010E94740CC82F682FC8014B
:101960000E94A705B8018C2F0E94660CCF911F9191
:101970000F910895C8010E94DE05C82FF3CFCF93C1
:10198000DF93D82FC92F0E94740C6D2F7C2F0E94DB
:10199000660C0E942406DF91CF910895FC0184819A
:1019A0008823A1F0808191810E94BF0C282F9295FD
:1019B0009F70963091F060F4925F9F70923030F497
:1019C00081E0203F79F030F4283E30F080E004C020
:1019D0009A5FF3CF243FD1F7089581E0283E18F0B5
:1019E000213FF9CF08950895909196058091C30203
:1019F000981308C080919705882329F19091C4021B
:101A0000891709F1E0917905F0917A053097A9F5E8
:101A100081E09091960526E0E5E9F5E0DF01322FBF
:101A20001D923A95E9F790939605A2ECB2E00190E9
:101A30000D922A95E1F781112AC081E0911101C030
:101A400080E08170089580919805882321F090911D
:101A5000C5028913D7CF80919A05882321F09091F0
:101A6000C7028913CFCF80919905882321F09091E7
:101A7000C6028913C7CF80E0CCCF82E08093950562
:101A80000480F581E02D85E995E00995C1CF81E0DD
:101A9000D8CF815D883090F44091960521E030E008
:101AA000F90102C0EE0FFF1F8A95E2F7CF0166230E
:101AB00031F0842B809396050E94F40C0895809554
:101AC0008423F8CFEFE7F1E083E0DF011D928A95F0
:101AD000E9F7EBE7F1E084E0DF011D928A95E9F791
:101AE000089590917601981721F0809376010E94D5
:101AF000620D08959C01809178019091790182177F
:101B0000930731F030937901209378010E94620DA0
:101B100008958091EF059091AD05892B8093E201A6
:101B20009091A605992391F0892B8093E20120E002
:101B300084EE91E0FC013081019631112F5F31E09C
:101B40008A3E9307B9F721111092A60548E050E0AC
:101B50006BE775E082EE91E00E94E533892BA9F0F6
:101B600088E0E2EEF1E0ABE7B5E001900D928A95F6
:101B7000E1F7E0917905F0917A05309731F0028034
:101B8000F381E02D82EE91E0099508950F931F9364
:101B9000CF93C82F882339F18CEF8C0F813AB0F5A1
:101BA00004EE11E0F8018191C81709F181E0EA3EE5
:101BB000F807C9F7EFEF80E0D8019D918D01C917B3
:101BC00081F0EF3F19F4911101C0E82F8F5F86304B
:101BD00099F7EF3F31F00E2E000CFF0BEE51FE4F48
:101BE000C2830E94890DCF911F910F910895E4EE59
:101BF000F1E08191C81303C0DF0111971C92A1E0AD
:101C0000EA3EFA07B1F70E94890DD4CF80E28C0F2B
:101C1000883068F4C77081E090E001C0880FCA95F1
:101C2000EAF7C091EF05C82BC093EF05DACF83E345
:101C30008C0F8331C0F661E08C2F0E94490DD3CF09
:101C4000882341F19CEF980F913A78F4E4EEF1E0AB
:101C50009191891303C0DF0111971C9291E0EA3E34
:101C6000F907B1F70E94890D089590E2980F983016
:101C700050F4877091E001C0990F8A95EAF7892F97
:101C80000E941C06EFCF93E3980F933118F460E0A5
:101C90000E94490D08951F93CF93DF93182FEB01F6
:101CA0000E94C60D8FE99FE00197F1F700C0000088
:101CB00021972097B9F7812F0E94200EDF91CF91B5
:101CC0001F910895882339F09091EF05892B809317
:101CD000EF050E94890D0895882321F00E941C06BB
:101CE0000E94890D0895E4EEF1E086E0DF011D9287
:101CF0008A95E9F71092AD050E94890D089510921A
:101D0000EF050E94730E2FEF84E39CE0215080408A
:101D10009040E1F700C0000088E19AE00FB6F89427
:101D2000A895809360000FBE90936000FFCFAAE259
:101D3000B0E0EDE9FEE00C9443338EEF91E0FC015E
:101D400001962091F100208322E086309207B9F7B6
:101D50008091FF01893009F458C0C8F4823009F439
:101D6000B5C0833009F484C0813081F18091E800EE
:101D700083FFE9C08091FE019091FF019A3008F045
:101D8000E2C0E92FF0E0EB5AFB4C0C9499338A3017
:101D900009F48BC08B3051F78091FE01813231F70D
:101DA0008091020290910302892B01F78091E80053
:101DB000877F8093E8000E9433098091000280931E
:101DC00000011092EF050E94730ED0CF8091FE01AA
:101DD000813A61F68091E800877F8093E8008091E6
:101DE000020290910302892B61F060E080E090E0B4
:101DF00070E00E94DA088091E8008B778093E80019
:101E0000B5CF68E086E092E0F3CF8091FE018132A9
:101E100009F0ACCF80910202909103028D7F892B53
:101E200009F0A4CF8091E800877F8093E80080913B
:101E3000E80082FF18C09091F3008091F2000297B1
:101E400031F48091F100813011F0863021F48091DD
:101E5000F10080930E028091E8008B778093E80078
:101E60000E94330983CF809171058111E0CF7ECF2D
:101E70008091FE01813A09F079CF80910202909120
:101E80000302892B09F072CF8091E800877F80934D
:101E9000E8008091E80080FFFCCF809100018093F2
:101EA000F1008091E8008E77D9CF8091FE018132D8
:101EB00009F05CCF8091E800877F8093E8000E9462
:101EC0003309809101028093FA0150CF8091FE0185
:101ED000813A09F04BCF8091E800877F8093E8003A
:101EE0008091E80080FFFCCF8091FA01D8CF803844
:101EF00089F0823841F5809102028F70873018F5A1
:101F00008093E9008091EB0085FB882780F910928F
:101F1000E90006C08091FB019091E004911182607C
:101F20009091E800977F9093E8008093F1001092E1
:101F3000F1008091E8008E7723C0811116C0809156
:101F40000002813011F18091E80083FF0AC0809186
:101F5000E800877F8093E8008091EB0080628093A7
:101F6000EB00AA96E3E00C945F33823061F7809136
:101F70000002882389F01092E9008091E800877FB1
:101F80008093E8000E943309DECF81E0933009F0AE
:101F900080E08093E004EFCF809102028F702FEFFA
:101FA000280F263080F68093E9002091EB0020FF77
:101FB000E2CF933031F48091EB0080628093EB00AC
:101FC000DACF9091EB0090619093EB0021E030E04C
:101FD000A90102C0440F551F8A95E2F74093EA0019
:101FE0001092EA008091EB008860E8CF8111ABCFBE
:101FF000109100021F778091E3008078812B8093FD
:10200000E3008091E800877F8093E8000E94330915
:102010008091E80080FFFCCF8091E300806880938E
:10202000E30083E0111101C082E0809371058BCF42
:102030008058823008F087CF409100025091010211
:102040004C3D83E0580799F583E08A838AE28983CF
:102050004FB7F894DE01139620E03EE051E2E32F03
:10206000F0E050935700849120FF03C082958F7059
:102070003F5F8F708A30C8F0895C90E08D939D93AC
:102080002F5F243161F74FBF8091E800877F8093F5
:10209000E8006AE270E0CE0101960E94DA088091C1
:1020A000E8008B778093E8004ECF805DE6CF80918B
:1020B000020290910302252F33272330310509F4C2
:1020C0004AC078F52130310509F479C08BE590E0FC
:1020D000E7E3F5E02230310509F035CF2091E80043
:1020E000277F2093E8002091040230910502821797
:1020F000930708F49C0140E02115310509F064C004
:10210000411162C08091E80082FDC9CF80917105C4
:10211000882329F2853019F28091E80083FFF2CFFD
:10212000BECF2132310509F43BC02232310509F01E
:102130000ACF8330910508F006CFFC01EE0FFF1F98
:10214000E555FE4F0190F081E02D88559E4FDC0152
:102150008C9190E011C0CA019927413089F08230FA
:102160009105B1F0892B09F0EECEECECF5E0E491AD
:102170008E2F90E0ECECF5E0009709F4E4CEAECFC2
:10218000EAEBF5E0E4918E2F90E0EAEBF5E0F4CF96
:10219000E4EAF5E0E4918E2F90E0E4EAF5E0ECCF9C
:1021A0008330910508F0CFCEFC01EE0FFF1FEF54F6
:1021B000FE4F0190F081E02D89E090E08FCF82E129
:1021C00090E0E2E9F5E08ACF80917105882309F477
:1021D00066CF853009F463CF8091E80083FD5FCF3F
:1021E0008091E80082FD8ECF8091E80080FF84CF4F
:1021F0009091F3008091F2002115310519F088309B
:10220000910550F041E0089709F040E08091E80026
:102210008E778093E80070CF44914093F10031961F
:10222000215031090196E8CF803809F08CCE809199
:10223000E800877F8093E8008091FC018093F100A3
:1022400078CE811180CE10910002123008F07BCE42
:102250008091E800877F8093E8001093FC010E9442
:1022600033091123D1F084E08093710542E061ECE1
:1022700081E00E94A20942E261EC84E00E94A2098E
:1022800042E261EC82E00E94A20942E260EC83E05B
:102290000E94A2098091710556CE8091E30087FDCE
:1022A000E2CF81E0E1CFA0E0B0E0E9E5F1E10C941C
:1022B0003E338901D42FC52F6B017C010E94D807C2
:1022C000A8016D2F7C2F88E090E00E9431349801A6
:1022D0004D2F5C2FB601C70100E20E94C133622F6F
:1022E00084E290E00E941F34CDB7DEB7E8E00C94A2
:1022F0005A33EEE9F5E083E0808311828FEF828329
:1023000086E983831482ABE9B5E012968C9112972B
:10231000836012968C93758123E030E04FEF56E98D
:1023200060E0868197810E94531108958091A205F3
:10233000833018F48F5F8093A20520919E05309121
:102340009F054091A0055091A1056091A205709153
:10235000A3058091A4059091A5050E9453110895AD
:102360008091A205882319F081508093A2052091C5
:102370009E0530919F054091A0055091A105609167
:10238000A2057091A3058091A4059091A5050E94D6
:1023900053110895A3E0B0E0E0EDF1E10C943C337B
:1023A000E82ED62EF42EC22E80919E0580FF59C0B5
:1023B00090919F059E1108C09091A005961304C0AE
:1023C0009091A105941729F090919D0592609093AA
:1023D0009D05982F9695E92FF0E0E154FE4F20815E
:1023E00020939B058E7F823009F045C04F2D86E9F2
:1023F0008F1508F446E99E012F5F3F4F6D2D8E2DFE
:102400000E944C0780919E0580FF14C04B8159812A
:102410006A8180910A0190910B01282F30E0F90127
:10242000EE0FFF1FE20FF31FEF5CFD4F8917E8F07F
:102430000E94FE0AE0929F05D092A005F092A105AD
:10244000CC2079F020919E056091A2057091A305A2
:102450003E2D4D2D5F2D8091A4059091A5050E94E4
:1024600053112396EAE00C945833618350834283DE
:102470008F5F3396DBCF2230E9F6EEEFE90F9170F4
:10248000A92EE695F0E0E357F84FE491B12C0E2F1A
:1024900010E060910C01B61658F62B2D30E0B09E7E
:1024A000C001B19E900D112470E00E9420338E2D4A
:1024B000A11017C0860F90910A01A901490F511D63
:1024C0009A01220F331F240F351F2F5C3D4F4F2DD4
:1024D00096E99F1508F446E96D2D0E944C07B394C8
:1024E000D8CF861BE8CF90919E0590FF2DC0882302
:1024F00061F18C3060F58F77282F220F80919E0537
:102500008170282B20939E0580919D05816080938A
:102510009D05662381F030919F054091A005509163
:10252000A1056091A2057091A3058091A4059091E9
:10253000A5050E94531120E04091A1056091A005DE
:1025400080919F050E94CA11089581E0D5CF8BE04C
:10255000D3CF80919E0586958F5F8C3008F081E007
:1025600061E00E947312089590919E0596958FEFF9
:10257000890F913009F48BE061E00E947312089595
:1025800080919E0580FF08C0869582588F7789309C
:1025900018F40E94A912089561E082E00E9473126B
:1025A0000895EEE9F5E0818121E0438162818F5E4B
:1025B0000E94CA110895EEE9F5E0818121E043818E
:1025C000628181510E94CA110895EEE9F5E06281AD
:1025D00021E1620F08F46FEF21E0438181810E94C5
:1025E000CA110895EEE9F5E0628121E1621B08F469
:1025F00060E021E0438181810E94CA110895EEE9E3
:10260000F5E043812FE0420F08F44FEF21E06281B3
:1026100081810E94CA110895EEE9F5E043812FE01F
:10262000421B08F440E021E0628181810E94CA11CE
:102630000895882381F064E285E290E00E941F34CF
:1026400060E186E290E00E941F3466E187E290E05C
:102650000E941F3408956FEF85E290E00E941F34BE
:102660006FEF86E290E00E941F346FEFEFCF88E2B9
:1026700090E00E941F3408951F93CF93DF93962F0D
:10268000122F632F8730D8F49830C8F44630B8F44E
:10269000C42FD0E0CC0FDD1F2CE0929FC00DD11DC8
:1026A000112490E6899FC00DD11D1124CE01899679
:1026B0000E941F34612FCE018A960E941F34DF9141
:1026C000CF911F910895AF92BF92CF92DF92FF9268
:1026D0000F931F93CF93DF93A12CB12CC0E0650122
:1026E000D0E019C021E030E0C43020F4F801859139
:1026F00094919C014F2D6D2F8C2F0E943C13F394CD
:102700000E5F1F4F86E0F812EDCFDF5F86E0C80E48
:10271000D11CD83039F08601000F111F00531A4F19
:10272000F12CE0CFCF5F80E3A80EB11CC730B9F623
:10273000DF91CF911F910F91FF90DF90CF90BF90CD
:10274000AF900895CF93DF93C9ECD2E060E0CE0163
:102750000E941F342196C11584E0D807B9F7DF9194
:10276000CF91089580E00E94191360E070E0CB01E2
:102770000E9437130E9463130E94A21381E00E94FB
:1027800019130895A8E0B0E0E8ECF3E10C944433A9
:1027900066EE7EEF80E090E00E943D3460E082E0F3
:1027A00090E00E941F3460E083E090E00E941F34BC
:1027B0001092A80560E074E184E090E00E943D344E
:1027C00060E086E090E00E941F346FEF87E090E0C9
:1027D0000E941F3440E050E0BA0188E090E00E947F
:1027E000313460E084E290E00E941F3460E087E1D1
:1027F00090E00E941F3460E08CE090E00E941F3463
:1028000060E08DE090E00E941F3419821A821B82E2
:102810001C821D821E821F82188648E050E068E1FB
:1028200070E0CE0101960E940F3440E050E0BA0102
:1028300080E290E00E94313480E00E9419130E94EF
:10284000B21340E050E0BA018FE090E00E943134D2
:1028500040E050E0BA0183E190E00E9431342896D4
:10286000E2E00C94603380E090E00E940934863E00
:102870009E4F19F40E940A0C089580E00895A0E08C
:10288000B0E0E5E4F4E10C943E33FA01690178012B
:10289000C82F880FDD0B3097B1F0DE0193E0AA0F4F
:1028A000BB1F9A95E1F7AA5EBE4F11968D919C9140
:1028B0001297885E9A4F4C9150E0E417F50708F4A0
:1028C000AF010E94F233CE010E94AB32182F882351
:1028D000D1F0E114F104B9F083E0CC0FDD1F8A954B
:1028E000E1F7FE01EA5EFE4F438150E0E416F50693
:1028F00008F4A701CA5EDE4F6C817D81685E7A4F65
:10290000C6010E94F233812FCDB7DEB7E8E00C9408
:102910005A33A0E0B0E0EFE8F4E10C943E33EB0171
:10292000942FB901A801C880D980EA80FB80EFB755
:10293000F894009114051091150520911605309119
:102940001705EFBF0C191D092E093F0904361105A3
:102950002105310510F4992371F000E010E020E02A
:1029600030E00E943F14882339F00E9430086883C9
:1029700079838A839B8381E0CDB7DEB7E8E00C944E
:102980005A33ABE0B0E0E7ECF4E10C94423328E0DA
:10299000EEE9F5E0CE010196DC0101900D922A9559
:1029A000E1F730919B0520919C0550919D05398759
:1029B0002A875B8741E09C01511101C040E00BE098
:1029C00010E064E075E083E00E94891481111092A8
:1029D0009D052B96E4E00C945E33A1E0B0E0E3EFBC
:1029E000F4E10C9442338091FF04898320912C05FB
:1029F00030E090E041E02817390709F440E001E0B9
:102A000010E09E012F5F3F4F60E075E084E00E9480
:102A100089142196E4E00C945E33CF92DF92FF920A
:102A20000F931F93CF93DF9300D000D00F92CDB7B9
:102A3000DEB76B0101E010E09E012B5F3F4F40E0ED
:102A400050E060E070E080E00E943F14F82E8823A0
:102A500009F43EC040911005509111056091120596
:102A6000709113052FB7F894809114059091150576
:102A7000A0911605B09117052FBF841B950BA60BCF
:102A8000B70B84369105A105B10550F464E070E000
:102A900089E195E00E94F4079D81891709F44BC0F4
:102AA00004E010E09E012F5F3F4F40E050E060E007
:102AB00070E081E00E943F14182F64E070E089E12B
:102AC00095E00E94F4079D81981302C011111CC06B
:102AD000F12C80910C0590910D05A0910E05B091FF
:102AE0000F05F60180839183A283B3838F2D0F900E
:102AF0000F900F900F900F90DF91CF911F910F913A
:102B0000FF90DF90CF9008950E94300860931005E9
:102B100070931105809312059093130589819A8112
:102B2000AB81BC8180930C0590930D05A0930E059D
:102B3000B0930F05CECF8091190590911A05A09101
:102B40001B05B0911C0589839A83AB83BC83E6CFB8
:102B5000A8E0B0E0EEEAF5E10C94423340910805BC
:102B60005091090560910A0570910B052FB7F894F3
:102B70008091140590911505A0911605B091170547
:102B80002FBF841B950BA60BB70B11E08436910564
:102B9000A105B10520F10E94BA0ADC01CB01029621
:102BA000A11DB11D89839A83AB83BC8300E010E033
:102BB00020E030E044E050E0BE016F5F7F4F82E0F4
:102BC0000E943F14182F882351F00E943008609310
:102BD00008057093090580930A0590930B05812FD2
:102BE0002896E4E00C945E33A5E0B0E0EAEFF5E16E
:102BF0000C943C338D83E62E5A01F22E68018091AD
:102C0000FE048A3028F080E02596EAE00C945833E0
:102C10008D818930C4F319828A836B832C8363E0AE
:102C200070E0CE0102960E94F4078983E09246018B
:102C3000F092590100E010E020E030E044E050E084
:102C4000BE016F5F7F4F85E00E943F148823D9F259
:102C50004E2D50E020E030E0B50186E00E943F14A8
:102C6000882389F220E030E041E050E0BE016B5F54
:102C70007F4F87E00E943F14882329F20F2D10E038
:102C8000960140E050E060E070E088E00E943F1470
:102C9000BBCFA0E0B0E0EFE4F6E10C943E337C0162
:102CA0006B0164E670E088E70E946C30EC0197FDF0
:102CB00012C000E010E0F701E00FF11F849164E61C
:102CC00070E00E94DB30EC010F5F1F4FC016D10691
:102CD00011F097FFF0CF0E945D3181E0CD2B09F01C
:102CE00080E0CDB7DEB7E8E00C945A338091D7048A
:102CF000882369F08091FF04882349F062E070E046
:102D00008DE591E00E94491681111092FF0408950B
:102D1000A4E0B0E0EEE8F6E10C9444338091D704EF
:102D20008823F9F00E943008DC01CB01805A9541DC
:102D3000AF4FBF4F8093D8049093D904A093DA0487
:102D4000B093DB048091FF0481110BC062E070E05E
:102D50008BE591E00E944916882319F081E0809369
:102D6000FF042496E2E00C946033CF93DF93282F86
:102D700081E02A3019F02D3031F480E00E943B17B9
:102D8000DF91CF9108958091D4029091D50236E0E1
:102D9000FC01A4EFB1E001900D923A95E1F730EE1D
:102DA000320F343A08F458C026E0FC0111922A95FB
:102DB000E9F7C091D402D091D50246E050E0BE01BF
:102DC00084EF91E00E94E5339E01265D3240892B1D
:102DD00041F1C90145E0969587954A95E1F741E0B3
:102DE00050E0BA0102C0660F771F8A95E2F7CB0167
:102DF0006091D2027091D302862B972BB9016B5F41
:102E00007F4FE5E076956795EA95E1F702C0440FBC
:102E1000551F6A95E2F7842B952B9093D3028093EC
:102E2000D2022A5F3F4F4091DC04642F70E0C90159
:102E30000E942033481B463010F4240F311D211509
:102E400072E0370710F020E030E02A523D4F309317
:102E5000D5022093D40294CF2052330B46E0429FF8
:102E6000B001439F700D1124615A7E4F46E050E03F
:102E70000E94DC339ECFCF93382FE091D402F091A3
:102E8000D502E65DF2402091DC04622F70E0CF01B4
:102E90000E942033281B822F332361F066E00E94BA
:102EA0006B33C82FC15010F4CF91089580E20E9477
:102EB000B516F8CF9F01280F311D2115324018F0AB
:102EC00080E0E0E0F0E08E0F9F2F911D8A529D4F31
:102ED0009093D5028093D402E7CF0F931F93CF93A3
:102EE000DF93EC01FC0101900020E9F78F01015014
:102EF0001109C017D10728F0DF91CF911F910F91D1
:102F0000089589910E94B516F4CFCF93DF93EC0119
:102F1000FE018491811103C0DF91CF9108950E9439
:102F2000B5162196F5CF28E030E043E060E086E377
:102F30000E94972F0895CF93C82F0E9493178C2F2C
:102F40000E940C308FE792E00197F1F700C000007B
:102F50000E942430C82F95E09A95F1F700000E9456
:102F60003C3085E68A95F1F700001092F9058C2F28
:102F7000CF910895CF93DF93D82FC62F0E94931738
:102F80008D2F80680E940C308C2F0E940C308AEBB1
:102F90008A95F1F700C00E943C3083E492E00197EB
:102FA000F1F700C00000DF91CF910895682F8937B5
:102FB00008F068E760938D0191E090938E01909105
:102FC0008201992339F06150811101C064E08FE0E2
:102FD0000E94BA17089520918D01211101C025E0AA
:102FE000082E000C990B820F911D1816190614F06B
:102FF00081E090E00E94D6170895FB0180810E9435
:10300000D6170895CF93DF930E948F2F269A0E94A0
:1030100093176AE58AE30E94BA172FEF80E792E0E0
:10302000215080409040E1F700C0000082E00E9403
:103030009B1783E00E949B1784E00E949B1785E00A
:103040000E949B1786E00E949B1760E080E10E942F
:10305000BA1780E00E949B17D82F81E00E949B172F
:10306000C82F0E943C30D23459F4C13049F4C09387
:10307000820164E08FE00E94BA17DF91CF9108953A
:1030800010928201FACFACE0B0E0E9E4F8E10C94F0
:1030900040334F83588769877A878B879C878091D5
:1030A0008201882309F44AC08091F905811107C083
:1030B00060E080E50E94BA1781E08093F9050E94E4
:1030C000931780E50E940C300AEB0A95F1F700C0D7
:1030D0000E9424300E9424300E9424307C010E94EF
:1030E000243060E070E0782FE62AF72A0E9424302E
:1030F0008C010E94243020E030E0382F022B132B6B
:103100000E943C3025E02A95F1F70000F894B701C1
:1031100080918501909186010E94EC049093860134
:1031200080938501B80180918701909188010E9468
:10313000EC04909388018093870178940E94940A0C
:10314000882309F46CC00E943008462F572FBC0119
:103150008091F0059091F105A091F205B091F305F1
:103160008A019B01081B190B2A0B3B0B0830110528
:103170002105310508F453C04093F0055093F10543
:103180006093F2057093F305809190019091910105
:10319000A0919201B0919301481B590B6A0B7B0BD4
:1031A000423351056105710580F410928601109239
:1031B0008501109288011092870110928A01109265
:1031C000890110928C0110928B0110918F010E9445
:1031D000530A482F1123C1F1BE01695F7F4F85E873
:1031E00091E00E942D0500918F01109182010E94B3
:1031F000530A91E0482F4927011709F453C0BE0133
:10320000695F7F4F89E891E00E942D0586E0FE010D
:103210003796AAE9B1E001900D928A95E1F786E030
:10322000FE013796DE01119601900D928A95E1F725
:1032300029813A814B815C816D817E8180E090E0C3
:103240002C96E6E00C945C33209187013091880144
:1032500091E821381FEF31072CF0922F20383105EB
:103260000CF09FE7998720918501309186012138E4
:103270008FEF38079CF02038310594F42A874423D7
:1032800021F09195998721952A87109286011092B5
:1032900085011092880110928701A5CF21E8EECF19
:1032A0002FE7ECCF20918B0130918C0191E82138F0
:1032B0000FEF30072CF0922F203831050CF09FE7EC
:1032C00099872091890130918A0121381FEF3107B8
:1032D0009CF02038310594F42A87442321F09195FD
:1032E000998721952A8710928A011092890110925C
:1032F0008C0110928B018ACF21E8EECF2FE7ECCF23
:103300001F921FB61F9211248F939F93AF93BF9369
:103310008091DF04811113C08091140590911505EF
:10332000A0911605B09117054196A11DB11D80937E
:10333000140590931505A0931605B0931705BF913A
:10334000AF919F918F911F901FBE1F9018952FB71F
:10335000F8948091140590911505A0911605B091EF
:1033600017052FBF0895A8E0B0E0E9EBF9E10C9450
:1033700036338C01DC0114968C91882309F4D6C075
:1033800061E0C8010E949F0C7C01F801D580DD201E
:1033900009F48DC197578038910508F088C1FFE086
:1033A000FE1508F4B2C08FEF93E00E94FB33811149
:1033B000ACC079ECC72E72E0D72EE11075C01A822E
:1033C0001982FE01339686E0DF011D928A95E9F7A6
:1033D0006AE0462E5601BFEFAB1ABB0AC6010E9437
:1033E000FB3389831A82882309F48FC0813009F066
:1033F000A1C07601E2E0EE0EF11CC5010E94FB3394
:103400008A83882309F481C09FEF980F933008F0D6
:1034100059C0F3E0CF0ED11CC7010E94FB338B8350
:10342000882309F472C01C82DE0111967D01F70128
:103430008081882379F2813009F0C0C08181813098
:1034400009F07AC05701F2E0AF0EB11CD701129615
:103450008C9165E070E0893311F460E570E00E94C2
:103460004B0E75012FEFE21AF20A8FE99FE00197E8
:10347000F1F700C00000AFE9BFE01197F1F700C01D
:103480000000EFE9FFE03197F1F700C000008FE99D
:103490009FE00197F1F700C00000AFE9BFE011978E
:1034A000F1F700C00000C3CFC11424E0D20669F1D7
:1034B000C6010E94FB33D60111966D018111F4CF34
:1034C000EA947BCF8430C1F452E0C52ED12CC701E1
:1034D0002FEFE21AF20A0E94FB33E1E0F0E0EC0F7A
:1034E000FD1FEC0DFD1D8083882379F08C3731F4AE
:1034F000FE01EC0DFD1D1282670196CF3FEFC31A4E
:10350000D30A87E0C816D10411F78091AA05877005
:10351000882361F0D80115968C91882339F0809129
:10352000AC0582FF03C082E00E948C082896E0E18F
:103530000C945233650178CF823041F45701B2E0E8
:10354000AB0EB11C82810E94C60D8BCF833051F42B
:103550005701F2E0AF0EB11CD70112968C910E9478
:10356000200E7FCF843021F0BFEFEB1AFB0A7ACF19
:103570002281C70102967C0180E090E0A7014F5FA5
:103580005F4F2053330B2A30310558F0009709F470
:1035900069CFEFE9FFE03197F1F700C00000019734
:1035A000F5CF489EB001499E700D1124C901860FC8
:1035B000971FD70111962C917A01E0CFE82FF0E008
:1035C000EC51F74F5490282F26952695269530E0FC
:1035D000F901EC52F74FA4908770B12C082E02C06D
:1035E000B594A7940A94E2F7F1E0AF22BB24F90165
:1035F000EC53F74F8490912C082E02C09594879439
:103600000A94E2F791E089229924F901EC54F74FEA
:10361000E491F0E002C0F595E7958A95E2F73F0165
:10362000A1E06A227724A114B104C1F481149104A9
:1036300051F5B9E365E070E0852D5B1203C060E5EC
:1036400070E089E30E944B0E6114710409F40ACF03
:1036500065E070E08CE20E944B0E04CF81EE0E9488
:10366000C60D8114910479F4E9E365E070E0852DDD
:103670005E1203C060E570E089E30E944B0E81EEAC
:103680000E94200EE1CF86EE0E94C60DF9E360E5B0
:1036900070E089E35F1619F065E070E0852D0E9407
:1036A0004B0E86EE0E94200EAB2849F7CDCF8091BD
:1036B0007601882309F407C2B0E2EB16B2E5FB06F7
:1036C00008F078C0E114E2E5FE0608F05EC1E114FE
:1036D000F0E5FF0600F1970145E0369527954A95FC
:1036E000E1F72F7033278091770190E02817390791
:1036F00009F419C28091810187FD12C1F0929701EE
:10370000E0929601F80180819181909399018093D4
:103710009801858102C2E11420E4F20608F0C6C1D6
:10372000E11430E2F30608F004C288EEE816F10472
:1037300018F590EEE916F10408F40DC280918101AC
:1037400087FDEEC0F0929701E0929601F80180812A
:1037500091819093990180939801F8018581882344
:1037600009F400C1F701FE57E031F10508F0FAC095
:10377000E15AFB4C0C949933C7019A9581159F41EE
:1037800008F4CAC0D80114968C91882309F4BFC0EC
:103790000E941B078111BBC0DD2009F4F4C1809198
:1037A00077012091A9052111E2C18111EAC10E948E
:1037B0007C08E7C1B0E8EB16B2E5FB0608F08EC066
:1037C000E0E6EE16E2E5FE0608F0EEC0F0E4EF16E5
:1037D000F2E5FF0608F4F7C08091810187FDA0C0E3
:1037E000F0929701E0929601F80180819181909387
:1037F0009901809398016581B7E0EB16BEE7FB065F
:1038000009F0ABCF862F0E944D08F8018581C0805A
:10381000D180882309F419C3C6010E94740CF82EC4
:10382000682FC6010E94A705B6018F2D0E94660C65
:103830000E9424067C01D8011596BC901597169617
:10384000AC90A2942FE0A2228091AA0587708823D1
:10385000F1F0CB2CBB20E1F08F2D807F803451F034
:1038600080E28E0D883098F0A11004C08F2D807EEC
:10387000803269F08091AC0582FF09C082E00E942D
:103880008C088091AA058770CC24C3948111C12C27
:103890008F2D82958F70883009F4BCC308F0FAC26E
:1038A000843008F0D7C2BF2DBF70DB2E823008F401
:1038B00002C38F2D807F803219F0D29480EFD822FE
:1038C000EE2009F430C321E0E21609F478C3BB20EE
:1038D00009F484C3AA2009F444C304C3B0ECEB1672
:1038E000B2E5FB0608F42ACFC701805C92458097B9
:1038F00008F477C0F8018481882349F0F7E0EF16D7
:10390000FEE7FF0609F044CF8D2D0E943E0780910F
:10391000810187FDD6C0D7C08091810187FF0AC091
:1039200010928101F0929701E0929601D8018D9159
:103930009C916DC0F0929701E0929601F801808110
:1039400091819093990180939801C701992728ED5F
:103950002E1540F0D80115966C91813D910510F01F
:103960000E94490DD80115968C91811101C2809158
:10397000EF058272F701E052F847E531F10508F0F2
:1039800029C2E159FB4C0C9499338091770190E066
:1039900097012F7133272817390709F0CFCED1109F
:1039A000CDCE0E943507CACE8091770190E0970175
:1039B0002F7133272817390709F00ECFD110BECE4B
:1039C0000E94350709CF8091770190E097012F7110
:1039D00033272817390709F0B1CE8D2D0E943E07F5
:1039E000FBCE8091770190E097012F713327281744
:1039F0003907F9F08091810187FF38C01092810169
:103A0000F0929701E0929601F80180819181909364
:103A1000990180939801C7019A9581159F4108F4F7
:103A200094CFF8016581F9EDEF16F10408F4B7C001
:103A3000E3CE8D2D0E943E07F8018681807F803580
:103A400059F08091810187FF22C010928101F0928C
:103A50009701E0929601D9CF8581882379F08091F2
:103A6000810181508093810187FDEFCFF092970112
:103A7000E0929601D8018D919C916BCE0E94350702
:103A8000809181018F5F8093810187FDB7CFF09294
:103A90009701E0929601D8018D919C911197909396
:103AA00099018093980115966C91A6CEF8018681B4
:103AB0008031B0F1848181116BCE8091810187FFCB
:103AC000C6CF10928101F0929701E0929601D80141
:103AD0008D919C9111979093990180939801F70192
:103AE0003497E533F10508F096CFEC59F64FE491A1
:103AF00015966C9120EB662311F02E2FE0EBA0EAD7
:103B0000B1E080E090E03D913E1344C08E579E4F5F
:103B1000FC01268FD80115968C91811123CF27CFD8
:103B20002F2D3327DECD8D2D0E943E078091810100
:103B3000ACCFF8018681803108F4BFCFD8018481F1
:103B4000811126CE8091810187FDBBCFF092970134
:103B5000E0929601ECCEF8018481882309F4D7CE57
:103B6000C7018D5C9109439708F4CECE11CE30E0A9
:103B7000082E02C0359527950A94E2F7217021118D
:103B800016CE0E94620D0E94A71990937E01809329
:103B90007D01BDCE01968630910509F0B4CFC701F5
:103BA000DCCE80E00E94D6171092940180E00E9443
:103BB000710D8AE892E00E947A0DA7CC30919401B1
:103BC00020917601809178019091790162E370E013
:103BD0000E9420338FEF860F6091950163704091B2
:103BE0008D0130FB47F936953370522F550F550F25
:103BF000532B880F880F880F582B70E08FE090E0D0
:103C00000E94313482CC81E00E94EB177ECC8FEF92
:103C1000FBCF8AE0F9CF86EFF7CF80918F0191E05B
:103C200089270E944D0871CC80919401811104C0B4
:103C300085E08093940169CC8F5F181654F081E081
:103C4000F8CF80919401811102C083E0F2CF8150BE
:103C5000F4CF883070F387E0ECCF81E0809395015A
:103C600054CC1092950151CC82E0F8CF809176012E
:103C700091E089270E94710D48CC80917801909144
:103C80007901C296893EF3E09F0708F494CF88EE4D
:103C900093E091CF8091780190917901C297843619
:103CA000910508F088CF84E690E085CF80919E054D
:103CB00080FF1CC0282F2E7F20939E0530919F05EA
:103CC0004091A0055091A1056091A2057091A305B6
:103CD0008091A4059091A5050E94531180919D05A6
:103CE000816080939D050E94FE0A0FCC81608093C5
:103CF0009E0561E086950E94731207CC44EB52E169
:103D000069EA72E10E94ED0700CC49EA52E164EBF6
:103D100072E1F8CF4BED52E161ED72E1F3CF41ED8D
:103D200052E16BED72E1EECF42EF52E165EE72E1EE
:103D3000E9CF45EE52E162EF72E1E4CF4CE053E1AE
:103D40006FEF72E1DFCF4FEF52E16CE073E1DACF5A
:103D500040EB51E166E971E1D5CF46E951E160EB15
:103D600071E1D0CF61E081E0C6CF0E94C012CDCB1F
:103D7000B7E7EB16BCE7FB06E1F182E0E8E7EE16F9
:103D8000ECE7FE06B9F13AE5E3163CE7F30609F481
:103D900058C0D0F591E0E9169CE7F90609F44FC048
:103DA000A3E0EA16ACE7FA0609F443C0E114BCE765
:103DB000FB0609F02ACD1092EF050E94730E2FEF3B
:103DC00034E38CE0215030408040E1F700C0000037
:103DD0000E94C508F7E7EF16FCE7FF0699F082E0BE
:103DE00028E7E2162CE7F20609F00FCD0E947C08C6
:103DF00003C081E00E94700843E062E081E00E941D
:103E0000A40883CB81E0F2CFEBE5EE16ECE7FE06EB
:103E1000D1F0FCE5EF16FCE7FF0609F0F6CC809147
:103E2000AC0582FB882780F991E089270E94F30B7B
:103E3000ECCC6FEF7FEF80E090E00E943D340E9479
:103E40007F0E81E0F3CF80E0F1CFC6010E94DE0556
:103E5000F82EEACC853009F4D8C0CC20B1F080919E
:103E6000AA0580FD12C0D80115961C9286958695EC
:103E700086950E947008C8010E94B3198091AA0516
:103E80008695869586950E947C0860E0C8010E9410
:103E90009F0C4CCB893009F42EC18A5F8F70823021
:103EA000E0F6E2EFEE123AC18F2D8F71B11033C1FF
:103EB0000E947008DDC0FFE0FF1518F4D29490EF67
:103EC000D922BB20B9F0DD2069F080E28E0D883068
:103ED00010F0E11009C08091EF058D298093EF0566
:103EE0000E94890D8E2D2FC08091AD058D29809364
:103EF000AD05F6CF8E2D0E94200EDD2009F4ADCF4A
:103F000080E28E0D883010F0E11004C08D2D0E94EB
:103F10001C0606C0D0948091AD058D218093AD051F
:103F20000E94890D9ACF8091AC0582FD16C0BB20FE
:103F300069F0DD2039F08091EF058D298093EF0540
:103F40000E94890D80E00E94C60D87CF80E00E940C
:103F5000200EDD2009F481CFD9CFBB20A1F0A11024
:103F600004C08D2D0E94620E78CF31E0A31275CF70
:103F70008091A6059D2D9823D91609F46ECF8D2921
:103F80008093A6056ACFA11068CF8D2D0E946C0E7C
:103F90009091A6058D2D8923882329F08D2D80955C
:103FA00089238093A6058091A7059D2D98239923A9
:103FB00009F453CFD094D822D092A7054ECFBB207E
:103FC00029F085E08A1508F448CFCBCF94E09A1504
:103FD00008F443CF8D2D0E946C0E3FCFAA20D1F361
:103FE000A9E3EA120DC0BFEFE7EEF3E0B150E04005
:103FF000F040E1F700C000008E2D0E94200E2DCF72
:104000008FE19EE40197F1F7F5CF6B2D8E2D0E9485
:10401000490D23CF8F2D8370811135C0B11028C079
:104020004E2D429546954770440F440F8E2D8F704C
:10403000042E01C0880F0A94EAF72E2D2071222346
:1040400039F02FE030E001C0220F4A95EAF72095C1
:104050003F2D369536953370323081F0333061F034
:104060004091A805313039F0822B84230E94A405A9
:104070000E94ED0AF2CE842B822BF8CF822B9091F6
:10408000A8058927F3CFBB2059F1F0FEF1CF4E2DC3
:10409000429546954770440F440F8E2D8F70042E25
:1040A00001C0880F0A94EAF72E2D2071222339F0DF
:1040B0002FE030E001C0220F4A95EAF720953F2D0E
:1040C000369536953370323089F0333069F040914F
:1040D000A905313041F0822B84230E946108C8CFAA
:1040E000823030F2D4CF842B822BF7CF822B909169
:1040F000A9058927F2CF9F2D9F70F92EBB2039F09B
:10410000892F0E9470088E2D0E94620EB1CF8E2DD5
:104110000E946C0E8F2D0E947C08AACFA2EFAE15D4
:1041200080F0B0EFEB16D1F0E1EFEE16C9F1BB2055
:1041300009F45FC0AA2009F459C08E2D0E94C60D53
:1041400097CFF3EFEF16E1F024EFE21629F1B1106B
:10415000F1CFA11061C08F2D8F71DDCFBB2069F031
:1041600034E03A1508F484CF2F2D2F7181E090E0D0
:1041700001C0880F2A95EAF7BACF85E0A816F2CFDA
:1041800080E0BB2009F4A9CF9F2D9F7181E001C081
:10419000880F9A95EAF7A1CF8091AC0582FD06C001
:1041A0008F2D8F71BB2009F4B6CF82CEBB2099F042
:1041B0009F2D9F71F92E892F0E9470088091AC0568
:1041C00082FF07C0A8E0FA9EC0011124836080939B
:1041D000AA058F2D6DCE81E00E948C08B1E0BA1542
:1041E00008F046CF82E00E948C0842CF8F2D8F715D
:1041F0005FCEAA2009F4AFCFE9E3EE120DC0FFEFC6
:1042000027EE33E0F15020403040E1F700C00000DD
:104210008E2D0E94200E2CCF8FE19EE40197F1F7A6
:10422000F5CF8091EE05803178F48091ED058823FB
:1042300059F0E091AF052091AE053091E90540912C
:10424000E80557E02E1301C008956E2F70E05E9FC1
:10425000F0011124DF01A055BA4F14968C911497E8
:10426000882361F111968C911197831327C08C914B
:10427000841324C015968C91159781111FC0129636
:104280008D919C91A091EA05B091EB058A1B9B0B47
:10429000883C910598F48091EE058F708061809341
:1042A000EE05EA54FA4F80818F708061808388EE3A
:1042B00095E00E94B3190E9412060895FB01319601
:1042C000E770C0CFADE0B0E0E8E6F1E20C9438333F
:1042D0008C0186E0F801DE01189601900D928A9516
:1042E000E1F7F8017080F580A280B380848198EEB8
:1042F000892E95E0992E6090EC05611018C08823F6
:1043000099F0FF2009F413C1C8010E94CE0C882344
:1043100009F40DC187E0F801A8EEB5E001900D9217
:104320008A95E1F70E941121FF24F39453C0D090A5
:10433000ED052091EA053091EB05A501421B530BD9
:10434000DD2009F4C4C0483C510508F07AC0882338
:1043500059F38091E905C180E090EE05FFE0FE157C
:1043600008F459C0C81215C08091E805871111C022
:10437000F1104BC08E2D8F7080618093EE0588EE1A
:1043800095E00E94B3198091EE05F8018683F12C27
:1043900021C0F1103AC040E06C2D872D0E94340AF4
:1043A00040E06C2D872D0E94340AF82E8111EFCF4A
:1043B000888599850E94BF0C292F22952F709034F3
:1043C00070F49F702230A0F09923B1F0F80196812B
:1043D000903190F48F2D2D96EEE00C9454332A5F9B
:1043E0002F70223068F0C8010E94B319FD2CF2CF63
:1043F000992311F0882371F3805E883058F3F3CF4E
:10440000803F40F3815F8230F9CF8091EE0581607B
:104410008093EE05BCCFC8123CC08091E80587119F
:1044200038C0F11036C0F801E682C8010E94B31905
:1044300087E0F801A8EEB5E001900D928A95E1F7CA
:1044400073CFE090EE05FFE0FE1550F088EE95E0AA
:104450000E94B31987E0F40111928A95E9F797CF8A
:10446000882309F461CF9091E905F80181819813BF
:1044700010C08091E80587110CC0F1100AC0E682D7
:10448000C8010E94B31987E0F40111928A95E9F7F7
:104490004BCFC8010E94CE0C882309F448C0FF20EE
:1044A00009F445C08091EE05803208F433CF809145
:1044B000E8059091E9059A838983BC82AB826D827D
:1044C0001E82EF82CE0101960E94B31923CF483C91
:1044D000510508F0BFCF882309F426CFFF2039F11A
:1044E0009091E9058181981318C08091E8058711A2
:1044F00014C08091EE0580FD9BCF803108F498CFE9
:104500008683807F803F09F490CF8681982F907FAB
:10451000905F8F70892B868388CFC8010E94CE0C54
:104520008111F8CE8091EE0581608093EE05C8017F
:104530000E94B319F9CEABE1B0E0E1EAF2E20C94EB
:1045400043334E8B5F8B688F798F8A8F9B8F91114E
:104550001092AD051D8A86E0FE017696DE011F965B
:1045600001900D928A95E1F78B89882329F061E00B
:10457000CE010F960E949F0C87E0FE013F96DE0160
:10458000189601900D928A95E1F7CE0108960E9447
:10459000622181112BC087E0FE013896DE01119661
:1045A00001900D928A95E1F72091AE054091AF05FB
:1045B0008C858823D9F030E0C9010196877099274E
:1045C00050E084179507E9F097E0929FD001939F00
:1045D000B00D1124A055BA4FFE01319601900D92F5
:1045E0009A95E1F78093AE050E94120617E080913C
:1045F000AF059091AE05891314C06B96E3E00C945F
:104600005F331092EF050E94730E1092AE05109268
:10461000AF0587E0E8EEF5E0DF011D928A95E9F746
:10462000E5CF189FC001112480559A4F0E94622146
:10463000882319F38091AF0590E001968770992740
:104640008093AF05D4CFA6E0B0E0E9E2F3E20C94AA
:1046500042330E94A7198C018091770590917805CB
:104660008017910779F019821A820E94A719BC015C
:1046700049815A8180E090E00E949B221093780546
:10468000009377052696E4E00C945E339C014FB7C7
:10469000F8948091140590911505A0911605B0919C
:1046A00017054FBF821B930B0895AEE1B0E0EBE519
:1046B000F3E20C943F33409195055091960560913B
:1046C0009705709198058091990590919A050E949F
:1046D0004318209395053093960540939705509382
:1046E00098056093990570939A0586E0E5E9F5E0F1
:1046F000DE01179601900D928A95E1F786E0FE01A2
:104700003796DE011D9601900D928A95E1F786E0BD
:10471000FE013D96DE01119601900D928A95E1F71A
:1047200086E0FE013196A5E9B5E001900D928A95EB
:10473000E1F786E0E5E9F5E0DE01599601900D929A
:104740008A95E1F786E0FE017996DE0117960190E1
:104750000D928A95E1F786E0FE013796DE0111960B
:1047600001900D928A95E1F786E0FE013196DE0117
:10477000539601900D928A95E1F786E0FE017396BB
:10478000DE01179601900D928A95E1F786E0FE0111
:104790003796A5E9B5E001900D928A95E1F7009171
:1047A000960510919705D0909805E0909905F090A6
:1047B0009A0580917601882309F443C080917B019A
:1047C00090917C010E94462320917A0130E02817C5
:1047D0003907B8F580917D0190917E010E944623B2
:1047E000893C910570F11D291E291F29102B81E09C
:1047F000111101C080E080937F010E941B0710917E
:10480000A905882359F10E94A71990937C018093F0
:104810007B0110927E0110927D0180917701111130
:1048200005C0882371F00E9470080BC0212F30E072
:10483000082E02C0359527950A94E2F721702223AD
:1048400091F30E94F40C811130C08091C10210924A
:10485000C10281706E96E7E00C945B338091770122
:10486000111118C08111EDCF80917B0190917C01D5
:104870000E94462320917801309179012817390749
:1048800000F7809177010E947C0810927C011092C1
:104890007B01D7CF212F30E002C0359527958A952F
:1048A000E2F72170222369F2DFCF81E090E0CFCFE1
:1048B0002F923F925F926F927F928F929F92AF92D0
:1048C000BF92CF92DF92EF92FF920F931F93CF93FD
:1048D000DF9300D000D000D00F92CDB7DEB780912B
:1048E000D704882309F425C180912F0290913002CA
:1048F0000E944623C29708F4DEC00E94A719909335
:10490000300280932F0286ED92E09093D50280933F
:10491000D4020E94940A882309F42EC189E597E005
:104920000E94851788EB0E94B516809199010E941C
:1049300026050E94B51689EB0E94B5168091980154
:104940000E9426050E94B51686E597E00E9485170D
:10495000809196019091970154E0969587955A958C
:10496000E1F70E9426050E94B516809196010E94EB
:1049700026050E94B51683E597E00E94851780EA18
:1049800091E00E946D1788E797E00E94851780915B
:104990009C010E9402050E946D1780919D010E945A
:1049A00002050E946D1780919F010E9402050E94DE
:1049B0006D1780919E010E9402050E946D1780E78D
:1049C00097E00E94851780918D01811101C085E0DB
:1049D0000E94020501960E946D178CE697E00E94E6
:1049E000851780919501882331F0813009F4B9C091
:1049F00083E697E002C089E697E00E9485178091E0
:104A00008F01882309F4B0C081E897E00E948517E0
:104A10008FE597E00E94851780919401811101C074
:104A200084E0805D0E94B51687E897E00E948517B4
:104A300021E030E03A8329838091A905882309F495
:104A400096C090E0098002C0959587950A94E2F798
:104A50008170882309F48BC089810E9426050E94F9
:104A6000B51649815A814F5F5F4F5A834983483059
:104A7000510511F780E20E94B51684E897E00E9484
:104A8000851780917601882309F473C081E897E047
:104A90000E94851780917801909179016AE070E019
:104AA0000E942033862F0E94020501960E946D17F6
:104AB00080E30E94B5168091D2029091D302892B97
:104AC000A9F08091D704882389F08091D6048111C0
:104AD0000DC00E9488162091D2023091D30280E04E
:104AE00061E070E02115310509F064C08091FF0498
:104AF0008823F9F00E94300869837A838B839C8332
:104B00008091D8049091D904A091DA04B091DB048B
:104B100029813A814B815C81281B390B4A0B5B0B45
:104B2000DA01C9018F3F9F4FAF4FBF4710F40E947A
:104B3000761627960FB6F894DEBF0FBECDBFDF9175
:104B4000CF911F910F91FF90EF90DF90CF90BF908A
:104B5000AF909F908F907F906F905F903F902F903D
:104B6000089586E697E049CF8EE797E04FCF80EB38
:104B700076CF8EE797E08CCF50E8598380E597E0B9
:104B80000E9485178981805F8D838981982F9F5F1F
:104B900099830E94B516AD81B981AB13F6CF80E041
:104BA0000E943B17ED81E03B09F485CF6D8169835D
:104BB000E5CF8F5F082F10E01B01082E02C0220CEA
:104BC000331C0A94E2F7A10142235323452B89F3B6
:104BD0009091DD0490FD44C0980136952795369557
:104BE0002795922F8295880F80763FE1380F80932A
:104BF000030120930601309304019093070124E6FA
:104C000030E047E050E061E071E088E70E940B315E
:104C1000892B09F06BCFA80125E0440F551F2A9579
:104C2000E1F78091DD0480FD23C04A525D4F04E628
:104C300010E020E230E060E488E70E943231892B06
:104C400009F054CF9101209530958091D202909136
:104C5000D302282339233093D3022093D20246CFA4
:104C6000880F880F880F37E0380F20E093E0BFCF20
:104C7000EFE0F2E080E2DF011D928A95E9F7EBEBCD
:104C8000F1E0FF83EE8307EB11E08FEBC82E81E0AC
:104C9000D82E97E0592E77247394AE81BF818D91E1
:104CA000BF83AE83F80121918F01240F352F311D71
:104CB0002A523D4FE82FF0E0E15FFD4F80E090E0A9
:104CC000652C681A872C082E01C0880C0A94EAF714
:104CD0007901A12CD701BD907D01B820662D6A19FC
:104CE000677070E0BB2D062E01C0BB0F0A94EAF777
:104CF0009B2E7195619571096770772701C0B694F5
:104D00006A95EAF79B286081962A9082A39468E0CE
:104D1000A612E0CF019631968830910589F68E81F2
:104D20009F81C816D90609F0B8CF04E610E020E24A
:104D300030E04FE052E07FCFA7E1B0E0E2EAF6E2F8
:104D40000C9439331D861C86FE013E9686E0DF01F9
:104D50001D928A95E9F78BECA82E81E0B82E8E0182
:104D6000045F1F4F4801EE24E394F12C25EDC22E81
:104D700021E0D22EF50181915F018F3F09F441C0FE
:104D8000F894E82FE295EF70F0E021A18F70A70171
:104D900002C0440F551F8A95E2F7CA01922F982B43
:104DA00091A392A18095892382A3789400C0EFEC0F
:104DB000F1E031E0712C21912F3F09F465C0A22F61
:104DC000A295AF70A05EB0E08C9190E02F7002C011
:104DD000959587952A95E2F78170811155C0832FAB
:104DE000782A330FCE16DF0631F7F501319780812F
:104DF0008F3F11F00E94F90650EA5A95F1F7D80159
:104E00007C920F5F1F4FBFECAB16B1E0BB0609F001
:104E1000B1CF48E050E0B40188EC92E00E94E53365
:104E20000091D102892B91F188E0F401A8ECB2E065
:104E300001900D928A95E1F781E08093F3010E9441
:104E4000A7199093F2018093F1018091F101909163
:104E5000F2010E9446230597E8F010E005511B4F30
:104E600044E050E068EC72E0C8010E94E533892B11
:104E700041F084E0E8ECF2E0D80101900D928A95CF
:104E8000E1F71092F30106C080E0AACF8091F30110
:104E90008111DBCF0E94940AE091D102882309F4AA
:104EA0007FC01A8219821C821B820E2F10E00551CE
:104EB0001B4F8091FE048A30E0F54DE055E1FE0184
:104EC00031967F01BF01C8010E94B90B6701882399
:104ED00009F454C048EA55E1B701C8010E94B90B72
:104EE000882309F44BC041EC54E1B701C8010E948A
:104EF000B90B882309F442C04DEE54E1B701C80153
:104F00000E94B90B8823D1F11092FE048091D00247
:104F100090E044E050E0B60185519B4F0E94E5339C
:104F200021E02093F001892BD9F46796EDE00C94F1
:104F300055338091EE019091EF010E944623843F0A
:104F4000914008F0BACF8091F001882371F384E09A
:104F5000FE013196DF011D928A95E9F71092F0016A
:104F6000E091D002F0E0E551FB4F89819A81AB815D
:104F7000BC8180839183A283B383D7CF8091FE04C9
:104F80008F3F39F40E94A7199093EF018093EE01AF
:104F9000DACF8F5F8093FE048A3008F4B7CFF2CF68
:104FA000F0E0E551FB4F80819181A281B381809334
:104FB000190590931A05A0931B05B0931C0564E096
:104FC00070E089E195E00E94F40780931805C09095
:104FD0001D05D0901E05E0901F05F09020058091E2
:104FE000EA019091EB01A091EC01B091ED01C8169E
:104FF000D906EA06FB06D1F0C092EA01D092EB0195
:10500000E092EC01F092ED010E94940A81110EC031
:105010000E943008C61AD70AE80AF90AC092730536
:10502000D0927405E0927505F09276058BE0E1E28E
:10503000F5E0DE01119601900D928A95E1F78091DD
:105040002105869500912205F0902305E090240526
:1050500010912B0510922B051123A9F010FF0BC006
:10506000998190FF17C090919E05916090939E0545
:1050700060E00E94731211FF06C020E04E2D6F2DDC
:10508000802F0E94CA1180912C05882331F00E9444
:1050900088164BCF0E94500BEECF0E94761645CF5C
:1050A000CDB7DEB7A4970FB6F894DEBF0FBECDBF65
:1050B00085B7806885BF85B7806885BF84B7877FDF
:1050C00084BF0FB6F894A8958091600088618093A2
:1050D0006000109260000FBE80E890E00FB6F89478
:1050E00080936100909361000FBE87EF96E09093EC
:1050F000E1018093E0010E9483090E94D909809117
:10510000E20084608093E2007894809171058823A6
:1051100099F08091E9001091EC00179511271795EF
:105120008F70182B1092E9008091E80083FD0E9497
:10513000970E1F701093E90082E084BD93E095BD47
:105140009AEF97BD80936E001092730510927405CC
:1051500010927505109276050E940A0C811102C00A
:105160000E94B2130E94530A80930D0180910D0199
:1051700081116AC088E18093080188E18093090168
:105180000E94940A81110E94BD3180910D0180918D
:105190000D0191E08927880F880F8093D10294E058
:1051A000981B9093D00284EF0E94F90685EF0E942D
:1051B000F90686EF0E94F90687EF0E94F9060FECC8
:1051C00011E0D8018D918D018F3F11F00E94F906F9
:1051D000B1E0053D1B07A9F788E0EBEEF4E0DF0145
:1051E000082F1D920A95E9F7E8ECF2E0DF011D9225
:1051F0008A95E9F70E943314811102C00E94C213FC
:1052000082E090E00E94FB338093E10484E090E030
:105210000E9409349093AC058093AB050E949C26B4
:10522000EFE3FCE93197F1F700C000000E949C26F3
:105230008091EB0480FF0AC06FEF7FEF80E090E089
:105240000E943D340E94C50880E095CF83E090E045
:105250000E94FB330E94A4058091A9050E9492053B
:10526000982F81E0933009F080E00E944D080E9461
:10527000940A91E08927880F8093DD0480E8809369
:10528000DC040E9466306BE070E089EA98E00E94DE
:105290004916882309F443C08091DD0465E070E07D
:1052A00081FDBBC284EA98E00E9449168823B9F1C7
:1052B0006DE070E082E998E00E944916882379F158
:1052C0000E94300869A37AA38BA39CA3DC01CB01C5
:1052D000805A9541AF4FBF4F8093D8049093D90423
:1052E000A093DA04B093DB04E6EDF2E080E092E014
:1052F000DF018C011D9201501040E1F7F093D502BF
:10530000E093D4028FEF9FEF9093D3028093D20269
:1053100081E08093D7048093FF041092D60480919B
:10532000DE0481118DC00E943314811104C00E94DB
:10533000C2130E94791188E090E00E9403346B014F
:105340007C0184E290E00E94FB33282F30E040E0B3
:1053500050E060E070E080E090E000E20E94A63360
:10536000E22FA32EB42EB52FA62FF72F970186017B
:1053700040E050E0BA01EC29A12AB22AB32BA42BB9
:10538000F52B862B972BE0939E05A0929F05B0925C
:10539000A005B093A105A093A205F093A305809367
:1053A000A4059093A50580919D05836080939D053C
:1053B000E230C8F50E94791188E090E00E94033441
:1053C0006B017C0184E290E00E94FB33282F30E0E7
:1053D00040E050E060E070E080E090E000E20E9499
:1053E000A6335901B42FA52FF62FE72F9701860179
:1053F00040E050E0BA01AC28B12AB22BA32BF42B29
:10540000E52B862B972BA0929E05B0929F05B0931B
:10541000A005A093A105F093A205E093A3058093B6
:10542000A4059093A5050E94D80780919E0580FF52
:1054300004C060E086950E94731281E08093DE04D0
:105440000E94940A811102C00E94C0310E94021879
:105450000E94940A81112EC08DE89AE09093650114
:105460008093640129E130E03093600120935F0173
:1054700089E390E090936301809362014EE755E0E9
:1054800050936D0140936C01309368012093670144
:1054900090936B0180936A014DEF57E15093750132
:1054A000409374013093700120936F0190937301C6
:1054B000809372010E943314882379F18FE090E089
:1054C0000E9403348B01F82E862F8F770E94D61707
:1054D000001F0027001F812F8370880F802B80936F
:1054E000940112FB882780F90E94710D8AE892E0EE
:1054F000183068F0212F26952695269530E02F5FED
:105500003F4F42E3429FC001439F900D11240E94F0
:105510007A0D8F2D8370809395010E94670A8EE02B
:1055200091E090937A058093790538E1A32EB12C10
:105530004AEE842E44E0942E80917105853059F412
:1055400080917105853009F46BC11092EF050E94BE
:10555000730E0E94ED0A0E949C2602EE14E09BEE60
:10556000C92E94E0D92E25EDE22E21E0F22EB701CE
:105570009601F8019191D9018D919D01DB014D9129
:10558000BD0184238E169F0609F4A3C1981791F3D9
:105590000E94940A282E612CF60171906F01D701A8
:1055A0008D917D017822F80131908F01371441F1FE
:1055B0003724512C44244394832D84218823C1F023
:1055C0002220B1F059826A820E94A7199C838B83A2
:1055D000F1E0FD8391E0872D8421811101C090E0ED
:1055E0009E8349815A816B817C818D810E949B229F
:1055F0005394440C26E05212DFCFF80131977082A9
:10560000639438E06312C8CF0E94BA0A0E94940AD9
:105610000E94552381116AC10E9458240E94881655
:105620000E94ED0A9091EA04891721F08093EA0420
:105630000E94300880917105843009F45AC10E949B
:10564000940A882309F478CF0E943008462F572FF8
:10565000BC018091F90481117CC08091F504909186
:10566000F604A091F704B091F8048A019B01081B8D
:10567000190B2A0B3B0BD901C801843F9140A105AE
:10568000B10508F466C04093F5045093F6046093A6
:10569000F7047093F8048091F3049091F404019658
:1056A0009093F4048093F30419828E010F5F1F4FCF
:1056B00021E040E050E060E089E00E94F4158111B3
:1056C00007C08091F3049091F4040A970CF441C050
:1056D00081E08093F904809383019981911101C045
:1056E00080E0809384018091820110E0882321F082
:1056F0000E94530A11E0180F8091840190E08823E2
:1057000021F00E94530A92E0981B192B0E94230C4F
:10571000462F572FBC016A017B012CEFC222812F3B
:10572000110F990BAA0BBB0B97018601082B192BA4
:105730002A2B3B2B09A31AA32BA33CA340175107E9
:105740006207730721F0C901B8010E9437130E9454
:10575000670A80918401882309F4EECE0E94300804
:105760006B017C018091FA049091FB04A091FC04F0
:10577000B091FD04A7019601281B390B4A0B5B0B66
:10578000243031054105510580F119821A821B82AE
:105790001C828E010F5F1F4F24E040E050E060E06C
:1057A0008AE00E94F4158823C1F069817A81809192
:1057B000890190918A010E94EC0490938A01809360
:1057C00089016B817C8180918B0190918C010E9479
:1057D000EC0490938C0180938B01C092FA04D092D8
:1057E000FB04E092FC04F092FD0480918E0188237A
:1057F00009F4A2CE80918D01898300E010E020E0C1
:10580000AE014F5F5F4F61E08BE00E94F41588238B
:1058100009F492CE10928E018FCE8FE998E044CD9C
:1058200080917105843031F10E9476160E945523D3
:105830001092DF0410E40FB6F894A895A0926000CF
:105840000FBE1093600083B7817F846083BF83B7EE
:10585000816083BF7894889583B78E7F83BF0FB6AE
:10586000F894A89580916000886180936000109200
:1058700060000FBE8091E004882309F461CE0E948D
:105880009C26EBEEF4E0A5EDB1E081919D9189239A
:10589000811105C024E0E33FF207B9F751CE80E162
:1058A00089BD82E189BD09B400FEFDCF8091D80099
:1058B0008F7D8093D8008091E00082608093E0002B
:1058C0008091E00081FDFCCF1092EF050E94730EE5
:1058D00037CE98135DCE0E9423230E94940A0E9423
:1058E0005523811103C00E9458249ACE0E94BA0AFF
:1058F00093CE83E08093E9008091E80082FF9FCE01
:105900008091E80085FD06C08091E8008B77809348
:10591000E80095CE0E945209882379F08091E80032
:105920008B778093E8008981EFEFE80FE33190F502
:10593000F0E0EC57FB4C0C94993380E2E82EF12C0C
:105940008E010F5F1F4F8091E80085FD0AC0809196
:10595000E8008B778093E8000E945209882399F32E
:10596000DDCF8091F100D8018C93B1E0EB1AF10802
:10597000E114F10499F20F5F1F4FE5CF1A828CE01A
:105980008B831AC08A81833019F138F4813061F039
:105990008230D9F08FEF89830FC08430D9F71B8212
:1059A0001C821D821E8208C00E9430080E949F3304
:1059B0006B837C838D839E8340E250E0BE016F5FEA
:1059C0007F4F82E00E945D0B3ACE0E94230CEECF07
:1059D0008B8190E0FE013496883091056CF79C0134
:1059E0003327D901A551BB4F2B523E4F4C91D901C2
:1059F0002C91242321930196EFCF8A81823049F0A4
:105A0000853041F680919E0580FF12C00E94500BA8
:105A1000D3CF0B811C812D813E8109A31AA32BA317
:105A20003CA3C901B8010E949F330E943713C4CF21
:105A3000816080939E0560E086950E947312BCCFC2
:105A40004C816B818A810E94370C9827892798277F
:105A50009E838D83B1CF2D813E813227232732272C
:105A60004C816B818A810E943C13A6CF0E946313F4
:105A7000A3CF9A81923009F08DCF8830D9F1893047
:105A800009F463C08B81833089F1A8F48130E1F09F
:105A9000823009F091CF8C81882309F4B7CF8091AF
:105AA0009E05816080939E0560E086950E9473123A
:105AB00060E08C81C2CF843009F07ECF20E040913D
:105AC000A1056D818C810FC08C8116E9819FC00179
:105AD00011246FEF70E00E942033462F20E0609188
